{
  "_format": "hh-sol-artifact-1",
  "contractName": "PropertyNFT",
  "sourceName": "contracts/PropertyNFT.sol",
  "abi": [
    {
      "inputs": [],
      "stateMutability": "nonpayable",
      "type": "constructor"
    },
    {
      "inputs": [
        {
          "internalType": "address",
          "name": "sender",
          "type": "address"
        },
        {
          "internalType": "uint256",
          "name": "tokenId",
          "type": "uint256"
        },
        {
          "internalType": "address",
          "name": "owner",
          "type": "address"
        }
      ],
      "name": "ERC721IncorrectOwner",
      "type": "error"
    },
    {
      "inputs": [
        {
          "internalType": "address",
          "name": "operator",
          "type": "address"
        },
        {
          "internalType": "uint256",
          "name": "tokenId",
          "type": "uint256"
        }
      ],
      "name": "ERC721InsufficientApproval",
      "type": "error"
    },
    {
      "inputs": [
        {
          "internalType": "address",
          "name": "approver",
          "type": "address"
        }
      ],
      "name": "ERC721InvalidApprover",
      "type": "error"
    },
    {
      "inputs": [
        {
          "internalType": "address",
          "name": "operator",
          "type": "address"
        }
      ],
      "name": "ERC721InvalidOperator",
      "type": "error"
    },
    {
      "inputs": [
        {
          "internalType": "address",
          "name": "owner",
          "type": "address"
        }
      ],
      "name": "ERC721InvalidOwner",
      "type": "error"
    },
    {
      "inputs": [
        {
          "internalType": "address",
          "name": "receiver",
          "type": "address"
        }
      ],
      "name": "ERC721InvalidReceiver",
      "type": "error"
    },
    {
      "inputs": [
        {
          "internalType": "address",
          "name": "sender",
          "type": "address"
        }
      ],
      "name": "ERC721InvalidSender",
      "type": "error"
    },
    {
      "inputs": [
        {
          "internalType": "uint256",
          "name": "tokenId",
          "type": "uint256"
        }
      ],
      "name": "ERC721NonexistentToken",
      "type": "error"
    },
    {
      "inputs": [
        {
          "internalType": "address",
          "name": "owner",
          "type": "address"
        }
      ],
      "name": "OwnableInvalidOwner",
      "type": "error"
    },
    {
      "inputs": [
        {
          "internalType": "address",
          "name": "account",
          "type": "address"
        }
      ],
      "name": "OwnableUnauthorizedAccount",
      "type": "error"
    },
    {
      "anonymous": false,
      "inputs": [
        {
          "indexed": true,
          "internalType": "address",
          "name": "owner",
          "type": "address"
        },
        {
          "indexed": true,
          "internalType": "address",
          "name": "approved",
          "type": "address"
        },
        {
          "indexed": true,
          "internalType": "uint256",
          "name": "tokenId",
          "type": "uint256"
        }
      ],
      "name": "Approval",
      "type": "event"
    },
    {
      "anonymous": false,
      "inputs": [
        {
          "indexed": true,
          "internalType": "address",
          "name": "owner",
          "type": "address"
        },
        {
          "indexed": true,
          "internalType": "address",
          "name": "operator",
          "type": "address"
        },
        {
          "indexed": false,
          "internalType": "bool",
          "name": "approved",
          "type": "bool"
        }
      ],
      "name": "ApprovalForAll",
      "type": "event"
    },
    {
      "anonymous": false,
      "inputs": [
        {
          "indexed": true,
          "internalType": "address",
          "name": "previousOwner",
          "type": "address"
        },
        {
          "indexed": true,
          "internalType": "address",
          "name": "newOwner",
          "type": "address"
        }
      ],
      "name": "OwnershipTransferred",
      "type": "event"
    },
    {
      "anonymous": false,
      "inputs": [
        {
          "indexed": true,
          "internalType": "uint256",
          "name": "tokenId",
          "type": "uint256"
        },
        {
          "indexed": true,
          "internalType": "address",
          "name": "owner",
          "type": "address"
        },
        {
          "indexed": false,
          "internalType": "string",
          "name": "propertyHash",
          "type": "string"
        },
        {
          "indexed": false,
          "internalType": "string",
          "name": "propertyId",
          "type": "string"
        }
      ],
      "name": "PropertyMinted",
      "type": "event"
    },
    {
      "anonymous": false,
      "inputs": [
        {
          "indexed": true,
          "internalType": "address",
          "name": "from",
          "type": "address"
        },
        {
          "indexed": true,
          "internalType": "address",
          "name": "to",
          "type": "address"
        },
        {
          "indexed": true,
          "internalType": "uint256",
          "name": "tokenId",
          "type": "uint256"
        }
      ],
      "name": "Transfer",
      "type": "event"
    },
    {
      "inputs": [
        {
          "internalType": "address",
          "name": "to",
          "type": "address"
        },
        {
          "internalType": "uint256",
          "name": "tokenId",
          "type": "uint256"
        }
      ],
      "name": "approve",
      "outputs": [],
      "stateMutability": "nonpayable",
      "type": "function"
    },
    {
      "inputs": [
        {
          "internalType": "address",
          "name": "owner",
          "type": "address"
        }
      ],
      "name": "balanceOf",
      "outputs": [
        {
          "internalType": "uint256",
          "name": "",
          "type": "uint256"
        }
      ],
      "stateMutability": "view",
      "type": "function"
    },
    {
      "inputs": [
        {
          "internalType": "uint256",
          "name": "tokenId",
          "type": "uint256"
        }
      ],
      "name": "getApproved",
      "outputs": [
        {
          "internalType": "address",
          "name": "",
          "type": "address"
        }
      ],
      "stateMutability": "view",
      "type": "function"
    },
    {
      "inputs": [
        {
          "internalType": "uint256",
          "name": "tokenId",
          "type": "uint256"
        }
      ],
      "name": "getPropertyToken",
      "outputs": [
        {
          "internalType": "address",
          "name": "owner",
          "type": "address"
        },
        {
          "internalType": "string",
          "name": "propertyHash",
          "type": "string"
        },
        {
          "internalType": "string",
          "name": "propertyId",
          "type": "string"
        }
      ],
      "stateMutability": "view",
      "type": "function"
    },
    {
      "inputs": [
        {
          "internalType": "string",
          "name": "",
          "type": "string"
        }
      ],
      "name": "hashToToken",
      "outputs": [
        {
          "internalType": "uint256",
          "name": "",
          "type": "uint256"
        }
      ],
      "stateMutability": "view",
      "type": "function"
    },
    {
      "inputs": [
        {
          "internalType": "address",
          "name": "owner",
          "type": "address"
        },
        {
          "internalType": "address",
          "name": "operator",
          "type": "address"
        }
      ],
      "name": "isApprovedForAll",
      "outputs": [
        {
          "internalType": "bool",
          "name": "",
          "type": "bool"
        }
      ],
      "stateMutability": "view",
      "type": "function"
    },
    {
      "inputs": [
        {
          "internalType": "string",
          "name": "",
          "type": "string"
        }
      ],
      "name": "isHashMinted",
      "outputs": [
        {
          "internalType": "bool",
          "name": "",
          "type": "bool"
        }
      ],
      "stateMutability": "view",
      "type": "function"
    },
    {
      "inputs": [
        {
          "internalType": "string",
          "name": "propertyHash",
          "type": "string"
        }
      ],
      "name": "isMinted",
      "outputs": [
        {
          "internalType": "bool",
          "name": "",
          "type": "bool"
        }
      ],
      "stateMutability": "view",
      "type": "function"
    },
    {
      "inputs": [
        {
          "internalType": "address",
          "name": "owner",
          "type": "address"
        },
        {
          "internalType": "string",
          "name": "propertyHash",
          "type": "string"
        },
        {
          "internalType": "string",
          "name": "propertyId",
          "type": "string"
        }
      ],
      "name": "mintProperty",
      "outputs": [
        {
          "internalType": "uint256",
          "name": "",
          "type": "uint256"
        }
      ],
      "stateMutability": "nonpayable",
      "type": "function"
    },
    {
      "inputs": [],
      "name": "name",
      "outputs": [
        {
          "internalType": "string",
          "name": "",
          "type": "string"
        }
      ],
      "stateMutability": "view",
      "type": "function"
    },
    {
      "inputs": [],
      "name": "owner",
      "outputs": [
        {
          "internalType": "address",
          "name": "",
          "type": "address"
        }
      ],
      "stateMutability": "view",
      "type": "function"
    },
    {
      "inputs": [
        {
          "internalType": "uint256",
          "name": "tokenId",
          "type": "uint256"
        }
      ],
      "name": "ownerOf",
      "outputs": [
        {
          "internalType": "address",
          "name": "",
          "type": "address"
        }
      ],
      "stateMutability": "view",
      "type": "function"
    },
    {
      "inputs": [
        {
          "internalType": "uint256",
          "name": "",
          "type": "uint256"
        }
      ],
      "name": "propertyHashes",
      "outputs": [
        {
          "internalType": "string",
          "name": "",
          "type": "string"
        }
      ],
      "stateMutability": "view",
      "type": "function"
    },
    {
      "inputs": [
        {
          "internalType": "uint256",
          "name": "",
          "type": "uint256"
        }
      ],
      "name": "propertyIds",
      "outputs": [
        {
          "internalType": "string",
          "name": "",
          "type": "string"
        }
      ],
      "stateMutability": "view",
      "type": "function"
    },
    {
      "inputs": [],
      "name": "renounceOwnership",
      "outputs": [],
      "stateMutability": "nonpayable",
      "type": "function"
    },
    {
      "inputs": [
        {
          "internalType": "address",
          "name": "from",
          "type": "address"
        },
        {
          "internalType": "address",
          "name": "to",
          "type": "address"
        },
        {
          "internalType": "uint256",
          "name": "tokenId",
          "type": "uint256"
        }
      ],
      "name": "safeTransferFrom",
      "outputs": [],
      "stateMutability": "nonpayable",
      "type": "function"
    },
    {
      "inputs": [
        {
          "internalType": "address",
          "name": "from",
          "type": "address"
        },
        {
          "internalType": "address",
          "name": "to",
          "type": "address"
        },
        {
          "internalType": "uint256",
          "name": "tokenId",
          "type": "uint256"
        },
        {
          "internalType": "bytes",
          "name": "data",
          "type": "bytes"
        }
      ],
      "name": "safeTransferFrom",
      "outputs": [],
      "stateMutability": "nonpayable",
      "type": "function"
    },
    {
      "inputs": [
        {
          "internalType": "address",
          "name": "operator",
          "type": "address"
        },
        {
          "internalType": "bool",
          "name": "approved",
          "type": "bool"
        }
      ],
      "name": "setApprovalForAll",
      "outputs": [],
      "stateMutability": "nonpayable",
      "type": "function"
    },
    {
      "inputs": [
        {
          "internalType": "bytes4",
          "name": "interfaceId",
          "type": "bytes4"
        }
      ],
      "name": "supportsInterface",
      "outputs": [
        {
          "internalType": "bool",
          "name": "",
          "type": "bool"
        }
      ],
      "stateMutability": "view",
      "type": "function"
    },
    {
      "inputs": [],
      "name": "symbol",
      "outputs": [
        {
          "internalType": "string",
          "name": "",
          "type": "string"
        }
      ],
      "stateMutability": "view",
      "type": "function"
    },
    {
      "inputs": [],
      "name": "tokenCounter",
      "outputs": [
        {
          "internalType": "uint256",
          "name": "",
          "type": "uint256"
        }
      ],
      "stateMutability": "view",
      "type": "function"
    },
    {
      "inputs": [
        {
          "internalType": "uint256",
          "name": "tokenId",
          "type": "uint256"
        }
      ],
      "name": "tokenURI",
      "outputs": [
        {
          "internalType": "string",
          "name": "",
          "type": "string"
        }
      ],
      "stateMutability": "view",
      "type": "function"
    },
    {
      "inputs": [
        {
          "internalType": "address",
          "name": "from",
          "type": "address"
        },
        {
          "internalType": "address",
          "name": "to",
          "type": "address"
        },
        {
          "internalType": "uint256",
          "name": "tokenId",
          "type": "uint256"
        }
      ],
      "name": "transferFrom",
      "outputs": [],
      "stateMutability": "nonpayable",
      "type": "function"
    },
    {
      "inputs": [
        {
          "internalType": "address",
          "name": "newOwner",
          "type": "address"
        }
      ],
      "name": "transferOwnership",
      "outputs": [],
      "stateMutability": "nonpayable",
      "type": "function"
    }
  ],
  "bytecode": "0x60806040523480156200001157600080fd5b50336040518060400160405280601181526020017f536d6172744369747950726f70657274790000000000000000000000000000008152506040518060400160405280600381526020017f5343500000000000000000000000000000000000000000000000000000000000815250816000908162000090919062000472565b508060019081620000a2919062000472565b505050600073ffffffffffffffffffffffffffffffffffffffff168173ffffffffffffffffffffffffffffffffffffffff16036200011a5760006040517f1e4fbdf70000000000000000000000000000000000000000000000000000000081526004016200011191906200059e565b60405180910390fd5b6200012b816200013260201b60201c565b50620005bb565b6000600660009054906101000a900473ffffffffffffffffffffffffffffffffffffffff16905081600660006101000a81548173ffffffffffffffffffffffffffffffffffffffff021916908373ffffffffffffffffffffffffffffffffffffffff1602179055508173ffffffffffffffffffffffffffffffffffffffff168173ffffffffffffffffffffffffffffffffffffffff167f8be0079c531659141344cd1fd0a4f28419497f9722a3daafe3b4186f6b6457e060405160405180910390a35050565b600081519050919050565b7f4e487b7100000000000000000000000000000000000000000000000000000000600052604160045260246000fd5b7f4e487b7100000000000000000000000000000000000000000000000000000000600052602260045260246000fd5b600060028204905060018216806200027a57607f821691505b60208210810362000290576200028f62000232565b5b50919050565b60008190508160005260206000209050919050565b60006020601f8301049050919050565b600082821b905092915050565b600060088302620002fa7fffffffffffffffffffffffffffffffffffffffffffffffffffffffffffffffff82620002bb565b620003068683620002bb565b95508019841693508086168417925050509392505050565b6000819050919050565b6000819050919050565b6000620003536200034d62000347846200031e565b62000328565b6200031e565b9050919050565b6000819050919050565b6200036f8362000332565b620003876200037e826200035a565b848454620002c8565b825550505050565b600090565b6200039e6200038f565b620003ab81848462000364565b505050565b5b81811015620003d357620003c760008262000394565b600181019050620003b1565b5050565b601f8211156200042257620003ec8162000296565b620003f784620002ab565b8101602085101562000407578190505b6200041f6200041685620002ab565b830182620003b0565b50505b505050565b600082821c905092915050565b6000620004476000198460080262000427565b1980831691505092915050565b600062000462838362000434565b9150826002028217905092915050565b6200047d82620001f8565b67ffffffffffffffff81111562000499576200049862000203565b5b620004a5825462000261565b620004b2828285620003d7565b600060209050601f831160018114620004ea5760008415620004d5578287015190505b620004e1858262000454565b86555062000551565b601f198416620004fa8662000296565b60005b828110156200052457848901518255600182019150602085019450602081019050620004fd565b8683101562000544578489015162000540601f89168262000434565b8355505b6001600288020188555050505b505050505050565b600073ffffffffffffffffffffffffffffffffffffffff82169050919050565b6000620005868262000559565b9050919050565b620005988162000579565b82525050565b6000602082019050620005b560008301846200058d565b92915050565b612cef80620005cb6000396000f3fe608060405234801561001057600080fd5b50600436106101585760003560e01c806370a08231116100c3578063c87b56dd1161007c578063c87b56dd146103ff578063d03b47f41461042f578063d082e3811461045f578063d1d8b4b31461047d578063e985e9c5146104ad578063f2fde38b146104dd57610158565b806370a0823114610351578063715018a6146103815780638da5cb5b1461038b57806395d89b41146103a9578063a22cb465146103c7578063b88d4fde146103e357610158565b8063436c126b11610115578063436c126b1461022f57806361f8fe06146102615780636352211e1461029157806364545487146102c157806367ad98da146102f15780636e777dd81461032157610158565b806301ffc9a71461015d57806306fdde031461018d578063081812fc146101ab578063095ea7b3146101db57806323b872dd146101f757806342842e0e14610213575b600080fd5b61017760048036038101906101729190611f64565b6104f9565b6040516101849190611fac565b60405180910390f35b6101956105db565b6040516101a29190612057565b60405180910390f35b6101c560048036038101906101c091906120af565b61066d565b6040516101d2919061211d565b60405180910390f35b6101f560048036038101906101f09190612164565b610689565b005b610211600480360381019061020c91906121a4565b61069f565b005b61022d600480360381019061022891906121a4565b6107a1565b005b610249600480360381019061024491906120af565b6107c1565b604051610258939291906121f7565b60405180910390f35b61027b600480360381019061027691906120af565b61091a565b6040516102889190612057565b60405180910390f35b6102ab60048036038101906102a691906120af565b6109ba565b6040516102b8919061211d565b60405180910390f35b6102db60048036038101906102d69190612371565b6109cc565b6040516102e89190611fac565b60405180910390f35b61030b60048036038101906103069190612371565b610a02565b6040516103189190611fac565b60405180910390f35b61033b600480360381019061033691906123ba565b610a37565b6040516103489190612454565b60405180910390f35b61036b6004803603810190610366919061246f565b610c12565b6040516103789190612454565b60405180910390f35b610389610ccc565b005b610393610ce0565b6040516103a0919061211d565b60405180910390f35b6103b1610d0a565b6040516103be9190612057565b60405180910390f35b6103e160048036038101906103dc91906124c8565b610d9c565b005b6103fd60048036038101906103f891906125a9565b610db2565b005b610419600480360381019061041491906120af565b610dd7565b6040516104269190612057565b60405180910390f35b610449600480360381019061044491906120af565b610e40565b6040516104569190612057565b60405180910390f35b610467610ee0565b6040516104749190612454565b60405180910390f35b61049760048036038101906104929190612371565b610ee6565b6040516104a49190612454565b60405180910390f35b6104c760048036038101906104c2919061262c565b610f14565b6040516104d49190611fac565b60405180910390f35b6104f760048036038101906104f2919061246f565b610fa8565b005b60007f80ac58cd000000000000000000000000000000000000000000000000000000007bffffffffffffffffffffffffffffffffffffffffffffffffffffffff1916827bffffffffffffffffffffffffffffffffffffffffffffffffffffffff191614806105c457507f5b5e139f000000000000000000000000000000000000000000000000000000007bffffffffffffffffffffffffffffffffffffffffffffffffffffffff1916827bffffffffffffffffffffffffffffffffffffffffffffffffffffffff1916145b806105d457506105d38261102e565b5b9050919050565b6060600080546105ea9061269b565b80601f01602080910402602001604051908101604052809291908181526020018280546106169061269b565b80156106635780601f1061063857610100808354040283529160200191610663565b820191906000526020600020905b81548152906001019060200180831161064657829003601f168201915b5050505050905090565b600061067882611098565b5061068282611120565b9050919050565b61069b828261069661115d565b611165565b5050565b600073ffffffffffffffffffffffffffffffffffffffff168273ffffffffffffffffffffffffffffffffffffffff16036107115760006040517f64a0ae92000000000000000000000000000000000000000000000000000000008152600401610708919061211d565b60405180910390fd5b6000610725838361072061115d565b611177565b90508373ffffffffffffffffffffffffffffffffffffffff168173ffffffffffffffffffffffffffffffffffffffff161461079b578382826040517f64283d7b000000000000000000000000000000000000000000000000000000008152600401610792939291906126cc565b60405180910390fd5b50505050565b6107bc83838360405180602001604052806000815250610db2565b505050565b60006060806107cf846109ba565b60086000868152602001908152602001600020600960008781526020019081526020016000208180546108019061269b565b80601f016020809104026020016040519081016040528092919081815260200182805461082d9061269b565b801561087a5780601f1061084f5761010080835404028352916020019161087a565b820191906000526020600020905b81548152906001019060200180831161085d57829003601f168201915b5050505050915080805461088d9061269b565b80601f01602080910402602001604051908101604052809291908181526020018280546108b99061269b565b80156109065780601f106108db57610100808354040283529160200191610906565b820191906000526020600020905b8154815290600101906020018083116108e957829003601f168201915b505050505090509250925092509193909250565b600860205280600052604060002060009150905080546109399061269b565b80601f01602080910402602001604051908101604052809291908181526020018280546109659061269b565b80156109b25780601f10610987576101008083540402835291602001916109b2565b820191906000526020600020905b81548152906001019060200180831161099557829003601f168201915b505050505081565b60006109c582611098565b9050919050565b600b818051602081018201805184825260208301602085012081835280955050505050506000915054906101000a900460ff1681565b6000600b82604051610a14919061273f565b908152602001604051809103902060009054906101000a900460ff169050919050565b6000610a41611391565b6000835111610a85576040517f08c379a0000000000000000000000000000000000000000000000000000000008152600401610a7c906127a2565b60405180910390fd5b600b83604051610a95919061273f565b908152602001604051809103902060009054906101000a900460ff1615610af1576040517f08c379a0000000000000000000000000000000000000000000000000000000008152600401610ae89061280e565b60405180910390fd5b60006007549050610b028582611418565b83600860008381526020019081526020016000209081610b2291906129da565b5082600960008381526020019081526020016000209081610b4391906129da565b5080600a85604051610b55919061273f565b9081526020016040518091039020819055506001600b85604051610b79919061273f565b908152602001604051809103902060006101000a81548160ff02191690831515021790555060076000815480929190610bb190612adb565b91905055508473ffffffffffffffffffffffffffffffffffffffff16817f7365d990f6bbe4f0cfddd3324a5ab7681ed482208d3dc5968a8ea3adf0aa19b38686604051610bff929190612b23565b60405180910390a3809150509392505050565b60008073ffffffffffffffffffffffffffffffffffffffff168273ffffffffffffffffffffffffffffffffffffffff1603610c855760006040517f89c62b64000000000000000000000000000000000000000000000000000000008152600401610c7c919061211d565b60405180910390fd5b600360008373ffffffffffffffffffffffffffffffffffffffff1673ffffffffffffffffffffffffffffffffffffffff168152602001908152602001600020549050919050565b610cd4611391565b610cde6000611436565b565b6000600660009054906101000a900473ffffffffffffffffffffffffffffffffffffffff16905090565b606060018054610d199061269b565b80601f0160208091040260200160405190810160405280929190818152602001828054610d459061269b565b8015610d925780601f10610d6757610100808354040283529160200191610d92565b820191906000526020600020905b815481529060010190602001808311610d7557829003601f168201915b5050505050905090565b610dae610da761115d565b83836114fc565b5050565b610dbd84848461069f565b610dd1610dc861115d565b8585858561166b565b50505050565b6060610de282611098565b506000610ded61181c565b90506000815111610e0d5760405180602001604052806000815250610e38565b80610e1784611833565b604051602001610e28929190612b5a565b6040516020818303038152906040525b915050919050565b60096020528060005260406000206000915090508054610e5f9061269b565b80601f0160208091040260200160405190810160405280929190818152602001828054610e8b9061269b565b8015610ed85780601f10610ead57610100808354040283529160200191610ed8565b820191906000526020600020905b815481529060010190602001808311610ebb57829003601f168201915b505050505081565b60075481565b600a818051602081018201805184825260208301602085012081835280955050505050506000915090505481565b6000600560008473ffffffffffffffffffffffffffffffffffffffff1673ffffffffffffffffffffffffffffffffffffffff16815260200190815260200160002060008373ffffffffffffffffffffffffffffffffffffffff1673ffffffffffffffffffffffffffffffffffffffff16815260200190815260200160002060009054906101000a900460ff16905092915050565b610fb0611391565b600073ffffffffffffffffffffffffffffffffffffffff168173ffffffffffffffffffffffffffffffffffffffff16036110225760006040517f1e4fbdf7000000000000000000000000000000000000000000000000000000008152600401611019919061211d565b60405180910390fd5b61102b81611436565b50565b60007f01ffc9a7000000000000000000000000000000000000000000000000000000007bffffffffffffffffffffffffffffffffffffffffffffffffffffffff1916827bffffffffffffffffffffffffffffffffffffffffffffffffffffffff1916149050919050565b6000806110a483611901565b9050600073ffffffffffffffffffffffffffffffffffffffff168173ffffffffffffffffffffffffffffffffffffffff160361111757826040517f7e27328900000000000000000000000000000000000000000000000000000000815260040161110e9190612454565b60405180910390fd5b80915050919050565b60006004600083815260200190815260200160002060009054906101000a900473ffffffffffffffffffffffffffffffffffffffff169050919050565b600033905090565b611172838383600161193e565b505050565b60008061118384611901565b9050600073ffffffffffffffffffffffffffffffffffffffff168373ffffffffffffffffffffffffffffffffffffffff16146111c5576111c4818486611b03565b5b600073ffffffffffffffffffffffffffffffffffffffff168173ffffffffffffffffffffffffffffffffffffffff16146112565761120760008560008061193e565b6001600360008373ffffffffffffffffffffffffffffffffffffffff1673ffffffffffffffffffffffffffffffffffffffff168152602001908152602001600020600082825403925050819055505b600073ffffffffffffffffffffffffffffffffffffffff168573ffffffffffffffffffffffffffffffffffffffff16146112d9576001600360008773ffffffffffffffffffffffffffffffffffffffff1673ffffffffffffffffffffffffffffffffffffffff168152602001908152602001600020600082825401925050819055505b846002600086815260200190815260200160002060006101000a81548173ffffffffffffffffffffffffffffffffffffffff021916908373ffffffffffffffffffffffffffffffffffffffff160217905550838573ffffffffffffffffffffffffffffffffffffffff168273ffffffffffffffffffffffffffffffffffffffff167fddf252ad1be2c89b69c2b068fc378daa952ba7f163c4a11628f55a4df523b3ef60405160405180910390a4809150509392505050565b61139961115d565b73ffffffffffffffffffffffffffffffffffffffff166113b7610ce0565b73ffffffffffffffffffffffffffffffffffffffff1614611416576113da61115d565b6040517f118cdaa700000000000000000000000000000000000000000000000000000000815260040161140d919061211d565b60405180910390fd5b565b611432828260405180602001604052806000815250611bc7565b5050565b6000600660009054906101000a900473ffffffffffffffffffffffffffffffffffffffff16905081600660006101000a81548173ffffffffffffffffffffffffffffffffffffffff021916908373ffffffffffffffffffffffffffffffffffffffff1602179055508173ffffffffffffffffffffffffffffffffffffffff168173ffffffffffffffffffffffffffffffffffffffff167f8be0079c531659141344cd1fd0a4f28419497f9722a3daafe3b4186f6b6457e060405160405180910390a35050565b600073ffffffffffffffffffffffffffffffffffffffff168273ffffffffffffffffffffffffffffffffffffffff160361156d57816040517f5b08ba18000000000000000000000000000000000000000000000000000000008152600401611564919061211d565b60405180910390fd5b80600560008573ffffffffffffffffffffffffffffffffffffffff1673ffffffffffffffffffffffffffffffffffffffff16815260200190815260200160002060008473ffffffffffffffffffffffffffffffffffffffff1673ffffffffffffffffffffffffffffffffffffffff16815260200190815260200160002060006101000a81548160ff0219169083151502179055508173ffffffffffffffffffffffffffffffffffffffff168373ffffffffffffffffffffffffffffffffffffffff167f17307eab39ab6107e8899845ad3d59bd9653f200f220920489ca2b5937696c318360405161165e9190611fac565b60405180910390a3505050565b60008373ffffffffffffffffffffffffffffffffffffffff163b1115611815578273ffffffffffffffffffffffffffffffffffffffff1663150b7a02868685856040518563ffffffff1660e01b81526004016116ca9493929190612bd3565b6020604051808303816000875af192505050801561170657506040513d601f19601f820116820180604052508101906117039190612c34565b60015b61178a573d8060008114611736576040519150601f19603f3d011682016040523d82523d6000602084013e61173b565b606091505b50600081510361178257836040517f64a0ae92000000000000000000000000000000000000000000000000000000008152600401611779919061211d565b60405180910390fd5b805160208201fd5b63150b7a0260e01b7bffffffffffffffffffffffffffffffffffffffffffffffffffffffff1916817bffffffffffffffffffffffffffffffffffffffffffffffffffffffff19161461181357836040517f64a0ae9200000000000000000000000000000000000000000000000000000000815260040161180a919061211d565b60405180910390fd5b505b5050505050565b606060405180602001604052806000815250905090565b60606000600161184284611beb565b01905060008167ffffffffffffffff81111561186157611860612246565b5b6040519080825280601f01601f1916602001820160405280156118935781602001600182028036833780820191505090505b509050600082602083010190505b6001156118f6578080600190039150507f3031323334353637383961626364656600000000000000000000000000000000600a86061a8153600a85816118ea576118e9612c61565b5b049450600085036118a1575b819350505050919050565b60006002600083815260200190815260200160002060009054906101000a900473ffffffffffffffffffffffffffffffffffffffff169050919050565b80806119775750600073ffffffffffffffffffffffffffffffffffffffff168273ffffffffffffffffffffffffffffffffffffffff1614155b15611aab57600061198784611098565b9050600073ffffffffffffffffffffffffffffffffffffffff168373ffffffffffffffffffffffffffffffffffffffff16141580156119f257508273ffffffffffffffffffffffffffffffffffffffff168173ffffffffffffffffffffffffffffffffffffffff1614155b8015611a055750611a038184610f14565b155b15611a4757826040517fa9fbf51f000000000000000000000000000000000000000000000000000000008152600401611a3e919061211d565b60405180910390fd5b8115611aa957838573ffffffffffffffffffffffffffffffffffffffff168273ffffffffffffffffffffffffffffffffffffffff167f8c5be1e5ebec7d5bd14f71427d1e84f3dd0314c0f7b2291e5b200ac8c7c3b92560405160405180910390a45b505b836004600085815260200190815260200160002060006101000a81548173ffffffffffffffffffffffffffffffffffffffff021916908373ffffffffffffffffffffffffffffffffffffffff16021790555050505050565b611b0e838383611d3e565b611bc257600073ffffffffffffffffffffffffffffffffffffffff168373ffffffffffffffffffffffffffffffffffffffff1603611b8357806040517f7e273289000000000000000000000000000000000000000000000000000000008152600401611b7a9190612454565b60405180910390fd5b81816040517f177e802f000000000000000000000000000000000000000000000000000000008152600401611bb9929190612c90565b60405180910390fd5b505050565b611bd18383611dff565b611be6611bdc61115d565b600085858561166b565b505050565b600080600090507a184f03e93ff9f4daa797ed6e38ed64bf6a1f0100000000000000008310611c49577a184f03e93ff9f4daa797ed6e38ed64bf6a1f0100000000000000008381611c3f57611c3e612c61565b5b0492506040810190505b6d04ee2d6d415b85acef81000000008310611c86576d04ee2d6d415b85acef81000000008381611c7c57611c7b612c61565b5b0492506020810190505b662386f26fc100008310611cb557662386f26fc100008381611cab57611caa612c61565b5b0492506010810190505b6305f5e1008310611cde576305f5e1008381611cd457611cd3612c61565b5b0492506008810190505b6127108310611d03576127108381611cf957611cf8612c61565b5b0492506004810190505b60648310611d265760648381611d1c57611d1b612c61565b5b0492506002810190505b600a8310611d35576001810190505b80915050919050565b60008073ffffffffffffffffffffffffffffffffffffffff168373ffffffffffffffffffffffffffffffffffffffff1614158015611df657508273ffffffffffffffffffffffffffffffffffffffff168473ffffffffffffffffffffffffffffffffffffffff161480611db75750611db68484610f14565b5b80611df557508273ffffffffffffffffffffffffffffffffffffffff16611ddd83611120565b73ffffffffffffffffffffffffffffffffffffffff16145b5b90509392505050565b600073ffffffffffffffffffffffffffffffffffffffff168273ffffffffffffffffffffffffffffffffffffffff1603611e715760006040517f64a0ae92000000000000000000000000000000000000000000000000000000008152600401611e68919061211d565b60405180910390fd5b6000611e7f83836000611177565b9050600073ffffffffffffffffffffffffffffffffffffffff168173ffffffffffffffffffffffffffffffffffffffff1614611ef35760006040517f73c6ac6e000000000000000000000000000000000000000000000000000000008152600401611eea919061211d565b60405180910390fd5b505050565b6000604051905090565b600080fd5b600080fd5b60007fffffffff0000000000000000000000000000000000000000000000000000000082169050919050565b611f4181611f0c565b8114611f4c57600080fd5b50565b600081359050611f5e81611f38565b92915050565b600060208284031215611f7a57611f79611f02565b5b6000611f8884828501611f4f565b91505092915050565b60008115159050919050565b611fa681611f91565b82525050565b6000602082019050611fc16000830184611f9d565b92915050565b600081519050919050565b600082825260208201905092915050565b60005b83811015612001578082015181840152602081019050611fe6565b60008484015250505050565b6000601f19601f8301169050919050565b600061202982611fc7565b6120338185611fd2565b9350612043818560208601611fe3565b61204c8161200d565b840191505092915050565b60006020820190508181036000830152612071818461201e565b905092915050565b6000819050919050565b61208c81612079565b811461209757600080fd5b50565b6000813590506120a981612083565b92915050565b6000602082840312156120c5576120c4611f02565b5b60006120d38482850161209a565b91505092915050565b600073ffffffffffffffffffffffffffffffffffffffff82169050919050565b6000612107826120dc565b9050919050565b612117816120fc565b82525050565b6000602082019050612132600083018461210e565b92915050565b612141816120fc565b811461214c57600080fd5b50565b60008135905061215e81612138565b92915050565b6000806040838503121561217b5761217a611f02565b5b60006121898582860161214f565b925050602061219a8582860161209a565b9150509250929050565b6000806000606084860312156121bd576121bc611f02565b5b60006121cb8682870161214f565b93505060206121dc8682870161214f565b92505060406121ed8682870161209a565b9150509250925092565b600060608201905061220c600083018661210e565b818103602083015261221e818561201e565b90508181036040830152612232818461201e565b9050949350505050565b600080fd5b600080fd5b7f4e487b7100000000000000000000000000000000000000000000000000000000600052604160045260246000fd5b61227e8261200d565b810181811067ffffffffffffffff8211171561229d5761229c612246565b5b80604052505050565b60006122b0611ef8565b90506122bc8282612275565b919050565b600067ffffffffffffffff8211156122dc576122db612246565b5b6122e58261200d565b9050602081019050919050565b82818337600083830152505050565b600061231461230f846122c1565b6122a6565b9050828152602081018484840111156123305761232f612241565b5b61233b8482856122f2565b509392505050565b600082601f8301126123585761235761223c565b5b8135612368848260208601612301565b91505092915050565b60006020828403121561238757612386611f02565b5b600082013567ffffffffffffffff8111156123a5576123a4611f07565b5b6123b184828501612343565b91505092915050565b6000806000606084860312156123d3576123d2611f02565b5b60006123e18682870161214f565b935050602084013567ffffffffffffffff81111561240257612401611f07565b5b61240e86828701612343565b925050604084013567ffffffffffffffff81111561242f5761242e611f07565b5b61243b86828701612343565b9150509250925092565b61244e81612079565b82525050565b60006020820190506124696000830184612445565b92915050565b60006020828403121561248557612484611f02565b5b60006124938482850161214f565b91505092915050565b6124a581611f91565b81146124b057600080fd5b50565b6000813590506124c28161249c565b92915050565b600080604083850312156124df576124de611f02565b5b60006124ed8582860161214f565b92505060206124fe858286016124b3565b9150509250929050565b600067ffffffffffffffff82111561252357612522612246565b5b61252c8261200d565b9050602081019050919050565b600061254c61254784612508565b6122a6565b90508281526020810184848401111561256857612567612241565b5b6125738482856122f2565b509392505050565b600082601f8301126125905761258f61223c565b5b81356125a0848260208601612539565b91505092915050565b600080600080608085870312156125c3576125c2611f02565b5b60006125d18782880161214f565b94505060206125e28782880161214f565b93505060406125f38782880161209a565b925050606085013567ffffffffffffffff81111561261457612613611f07565b5b6126208782880161257b565b91505092959194509250565b6000806040838503121561264357612642611f02565b5b60006126518582860161214f565b92505060206126628582860161214f565b9150509250929050565b7f4e487b7100000000000000000000000000000000000000000000000000000000600052602260045260246000fd5b600060028204905060018216806126b357607f821691505b6020821081036126c6576126c561266c565b5b50919050565b60006060820190506126e1600083018661210e565b6126ee6020830185612445565b6126fb604083018461210e565b949350505050565b600081905092915050565b600061271982611fc7565b6127238185612703565b9350612733818560208601611fe3565b80840191505092915050565b600061274b828461270e565b915081905092915050565b7f4861736820726571756972656400000000000000000000000000000000000000600082015250565b600061278c600d83611fd2565b915061279782612756565b602082019050919050565b600060208201905081810360008301526127bb8161277f565b9050919050565b7f416c7265616479206d696e746564000000000000000000000000000000000000600082015250565b60006127f8600e83611fd2565b9150612803826127c2565b602082019050919050565b60006020820190508181036000830152612827816127eb565b9050919050565b60008190508160005260206000209050919050565b60006020601f8301049050919050565b600082821b905092915050565b6000600883026128907fffffffffffffffffffffffffffffffffffffffffffffffffffffffffffffffff82612853565b61289a8683612853565b95508019841693508086168417925050509392505050565b6000819050919050565b60006128d76128d26128cd84612079565b6128b2565b612079565b9050919050565b6000819050919050565b6128f1836128bc565b6129056128fd826128de565b848454612860565b825550505050565b600090565b61291a61290d565b6129258184846128e8565b505050565b5b818110156129495761293e600082612912565b60018101905061292b565b5050565b601f82111561298e5761295f8161282e565b61296884612843565b81016020851015612977578190505b61298b61298385612843565b83018261292a565b50505b505050565b600082821c905092915050565b60006129b160001984600802612993565b1980831691505092915050565b60006129ca83836129a0565b9150826002028217905092915050565b6129e382611fc7565b67ffffffffffffffff8111156129fc576129fb612246565b5b612a06825461269b565b612a1182828561294d565b600060209050601f831160018114612a445760008415612a32578287015190505b612a3c85826129be565b865550612aa4565b601f198416612a528661282e565b60005b82811015612a7a57848901518255600182019150602085019450602081019050612a55565b86831015612a975784890151612a93601f8916826129a0565b8355505b6001600288020188555050505b505050505050565b7f4e487b7100000000000000000000000000000000000000000000000000000000600052601160045260246000fd5b6000612ae682612079565b91507fffffffffffffffffffffffffffffffffffffffffffffffffffffffffffffffff8203612b1857612b17612aac565b5b600182019050919050565b60006040820190508181036000830152612b3d818561201e565b90508181036020830152612b51818461201e565b90509392505050565b6000612b66828561270e565b9150612b72828461270e565b91508190509392505050565b600081519050919050565b600082825260208201905092915050565b6000612ba582612b7e565b612baf8185612b89565b9350612bbf818560208601611fe3565b612bc88161200d565b840191505092915050565b6000608082019050612be8600083018761210e565b612bf5602083018661210e565b612c026040830185612445565b8181036060830152612c148184612b9a565b905095945050505050565b600081519050612c2e81611f38565b92915050565b600060208284031215612c4a57612c49611f02565b5b6000612c5884828501612c1f565b91505092915050565b7f4e487b7100000000000000000000000000000000000000000000000000000000600052601260045260246000fd5b6000604082019050612ca5600083018561210e565b612cb26020830184612445565b939250505056fea2646970667358221220c36b4b47718e91e6d90e0a298fdbf59b623db700276c46737251a678cc13442364736f6c63430008140033",
  "linkReferences": {},
  "deployedLinkReferences": {}
}