{
  "_format": "hh-sol-artifact-1",
  "contractName": "PropertyAuction",
  "sourceName": "contracts/PropertyAuction.sol",
  "abi": [
    {
      "inputs": [
        {
          "internalType": "address",
          "name": "_biddingToken",
          "type": "address"
        }
      ],
      "stateMutability": "nonpayable",
      "type": "constructor"
    },
    {
      "inputs": [],
      "name": "ReentrancyGuardReentrantCall",
      "type": "error"
    },
    {
      "anonymous": false,
      "inputs": [
        {
          "indexed": true,
          "internalType": "uint256",
          "name": "auctionId",
          "type": "uint256"
        }
      ],
      "name": "AuctionCancelled",
      "type": "event"
    },
    {
      "anonymous": false,
      "inputs": [
        {
          "indexed": true,
          "internalType": "uint256",
          "name": "auctionId",
          "type": "uint256"
        },
        {
          "indexed": true,
          "internalType": "address",
          "name": "nftContract",
          "type": "address"
        },
        {
          "indexed": true,
          "internalType": "uint256",
          "name": "tokenId",
          "type": "uint256"
        },
        {
          "indexed": false,
          "internalType": "address",
          "name": "seller",
          "type": "address"
        },
        {
          "indexed": false,
          "internalType": "uint256",
          "name": "reservePrice",
          "type": "uint256"
        },
        {
          "indexed": false,
          "internalType": "uint256",
          "name": "endTime",
          "type": "uint256"
        }
      ],
      "name": "AuctionCreated",
      "type": "event"
    },
    {
      "anonymous": false,
      "inputs": [
        {
          "indexed": true,
          "internalType": "uint256",
          "name": "auctionId",
          "type": "uint256"
        },
        {
          "indexed": true,
          "internalType": "address",
          "name": "winner",
          "type": "address"
        },
        {
          "indexed": false,
          "internalType": "uint256",
          "name": "winningBid",
          "type": "uint256"
        }
      ],
      "name": "AuctionFinalized",
      "type": "event"
    },
    {
      "anonymous": false,
      "inputs": [
        {
          "indexed": true,
          "internalType": "uint256",
          "name": "auctionId",
          "type": "uint256"
        },
        {
          "indexed": true,
          "internalType": "address",
          "name": "bidder",
          "type": "address"
        },
        {
          "indexed": false,
          "internalType": "uint256",
          "name": "amount",
          "type": "uint256"
        },
        {
          "indexed": false,
          "internalType": "uint256",
          "name": "newEndTime",
          "type": "uint256"
        }
      ],
      "name": "BidPlaced",
      "type": "event"
    },
    {
      "anonymous": false,
      "inputs": [
        {
          "indexed": true,
          "internalType": "uint256",
          "name": "auctionId",
          "type": "uint256"
        },
        {
          "indexed": true,
          "internalType": "address",
          "name": "bidder",
          "type": "address"
        },
        {
          "indexed": false,
          "internalType": "uint256",
          "name": "amount",
          "type": "uint256"
        }
      ],
      "name": "BidWithdrawn",
      "type": "event"
    },
    {
      "inputs": [],
      "name": "auctionCounter",
      "outputs": [
        {
          "internalType": "uint256",
          "name": "",
          "type": "uint256"
        }
      ],
      "stateMutability": "view",
      "type": "function"
    },
    {
      "inputs": [
        {
          "internalType": "uint256",
          "name": "",
          "type": "uint256"
        }
      ],
      "name": "auctions",
      "outputs": [
        {
          "internalType": "address",
          "name": "nftContract",
          "type": "address"
        },
        {
          "internalType": "uint256",
          "name": "tokenId",
          "type": "uint256"
        },
        {
          "internalType": "address",
          "name": "seller",
          "type": "address"
        },
        {
          "internalType": "uint256",
          "name": "reservePrice",
          "type": "uint256"
        },
        {
          "internalType": "uint256",
          "name": "highestBid",
          "type": "uint256"
        },
        {
          "internalType": "address",
          "name": "highestBidder",
          "type": "address"
        },
        {
          "internalType": "uint256",
          "name": "startTime",
          "type": "uint256"
        },
        {
          "internalType": "uint256",
          "name": "endTime",
          "type": "uint256"
        },
        {
          "internalType": "enum PropertyAuction.AuctionStatus",
          "name": "status",
          "type": "uint8"
        },
        {
          "internalType": "uint256",
          "name": "bidCount",
          "type": "uint256"
        },
        {
          "internalType": "uint256",
          "name": "minBidIncrement",
          "type": "uint256"
        }
      ],
      "stateMutability": "view",
      "type": "function"
    },
    {
      "inputs": [],
      "name": "biddingToken",
      "outputs": [
        {
          "internalType": "address",
          "name": "",
          "type": "address"
        }
      ],
      "stateMutability": "view",
      "type": "function"
    },
    {
      "inputs": [
        {
          "internalType": "uint256",
          "name": "auctionId",
          "type": "uint256"
        }
      ],
      "name": "cancelAuction",
      "outputs": [],
      "stateMutability": "nonpayable",
      "type": "function"
    },
    {
      "inputs": [
        {
          "internalType": "address",
          "name": "nftContract",
          "type": "address"
        },
        {
          "internalType": "uint256",
          "name": "tokenId",
          "type": "uint256"
        },
        {
          "internalType": "uint256",
          "name": "reservePrice",
          "type": "uint256"
        },
        {
          "internalType": "uint256",
          "name": "duration",
          "type": "uint256"
        },
        {
          "internalType": "uint256",
          "name": "minBidIncrement",
          "type": "uint256"
        }
      ],
      "name": "createAuction",
      "outputs": [],
      "stateMutability": "nonpayable",
      "type": "function"
    },
    {
      "inputs": [
        {
          "internalType": "uint256",
          "name": "",
          "type": "uint256"
        },
        {
          "internalType": "address",
          "name": "",
          "type": "address"
        }
      ],
      "name": "escrowedBids",
      "outputs": [
        {
          "internalType": "uint256",
          "name": "",
          "type": "uint256"
        }
      ],
      "stateMutability": "view",
      "type": "function"
    },
    {
      "inputs": [
        {
          "internalType": "uint256",
          "name": "auctionId",
          "type": "uint256"
        }
      ],
      "name": "finalizeAuction",
      "outputs": [],
      "stateMutability": "nonpayable",
      "type": "function"
    },
    {
      "inputs": [
        {
          "internalType": "uint256",
          "name": "auctionId",
          "type": "uint256"
        }
      ],
      "name": "getAuction",
      "outputs": [
        {
          "internalType": "address",
          "name": "nftContract",
          "type": "address"
        },
        {
          "internalType": "uint256",
          "name": "tokenId",
          "type": "uint256"
        },
        {
          "internalType": "address",
          "name": "seller",
          "type": "address"
        },
        {
          "internalType": "uint256",
          "name": "reservePrice",
          "type": "uint256"
        },
        {
          "internalType": "uint256",
          "name": "highestBid",
          "type": "uint256"
        },
        {
          "internalType": "address",
          "name": "highestBidder",
          "type": "address"
        },
        {
          "internalType": "uint256",
          "name": "startTime",
          "type": "uint256"
        },
        {
          "internalType": "uint256",
          "name": "endTime",
          "type": "uint256"
        },
        {
          "internalType": "enum PropertyAuction.AuctionStatus",
          "name": "status",
          "type": "uint8"
        },
        {
          "internalType": "uint256",
          "name": "bidCount",
          "type": "uint256"
        },
        {
          "internalType": "uint256",
          "name": "minBidIncrement",
          "type": "uint256"
        }
      ],
      "stateMutability": "view",
      "type": "function"
    },
    {
      "inputs": [
        {
          "internalType": "uint256",
          "name": "auctionId",
          "type": "uint256"
        },
        {
          "internalType": "address",
          "name": "bidder",
          "type": "address"
        }
      ],
      "name": "getEscrowedBid",
      "outputs": [
        {
          "internalType": "uint256",
          "name": "",
          "type": "uint256"
        }
      ],
      "stateMutability": "view",
      "type": "function"
    },
    {
      "inputs": [
        {
          "internalType": "uint256",
          "name": "auctionId",
          "type": "uint256"
        }
      ],
      "name": "getTimeRemaining",
      "outputs": [
        {
          "internalType": "uint256",
          "name": "",
          "type": "uint256"
        }
      ],
      "stateMutability": "view",
      "type": "function"
    },
    {
      "inputs": [
        {
          "internalType": "uint256",
          "name": "auctionId",
          "type": "uint256"
        }
      ],
      "name": "isAuctionActive",
      "outputs": [
        {
          "internalType": "bool",
          "name": "",
          "type": "bool"
        }
      ],
      "stateMutability": "view",
      "type": "function"
    },
    {
      "inputs": [
        {
          "internalType": "uint256",
          "name": "auctionId",
          "type": "uint256"
        },
        {
          "internalType": "uint256",
          "name": "amount",
          "type": "uint256"
        }
      ],
      "name": "placeBid",
      "outputs": [],
      "stateMutability": "nonpayable",
      "type": "function"
    },
    {
      "inputs": [
        {
          "internalType": "uint256",
          "name": "auctionId",
          "type": "uint256"
        }
      ],
      "name": "withdrawBid",
      "outputs": [],
      "stateMutability": "nonpayable",
      "type": "function"
    }
  ],
  "bytecode": "0x60806040523480156200001157600080fd5b5060405162002ff338038062002ff3833981810160405281019062000037919062000163565b6001600081905550600073ffffffffffffffffffffffffffffffffffffffff168173ffffffffffffffffffffffffffffffffffffffff1603620000b1576040517f08c379a0000000000000000000000000000000000000000000000000000000008152600401620000a890620001f6565b60405180910390fd5b80600160006101000a81548173ffffffffffffffffffffffffffffffffffffffff021916908373ffffffffffffffffffffffffffffffffffffffff1602179055505062000218565b600080fd5b600073ffffffffffffffffffffffffffffffffffffffff82169050919050565b60006200012b82620000fe565b9050919050565b6200013d816200011e565b81146200014957600080fd5b50565b6000815190506200015d8162000132565b92915050565b6000602082840312156200017c576200017b620000f9565b5b60006200018c848285016200014c565b91505092915050565b600082825260208201905092915050565b7f496e76616c696420746f6b656e20616464726573730000000000000000000000600082015250565b6000620001de60158362000195565b9150620001eb82620001a6565b602082019050919050565b600060208201905081810360008301526200021181620001cf565b9050919050565b612dcb80620002286000396000f3fe608060405234801561001057600080fd5b50600436106100cf5760003560e01c80638323b6b51161008c57806396b5a7551161006657806396b5a7551461024a578063a7e7664414610266578063e71f7b1514610284578063e8083863146102b4576100cf565b80638323b6b5146101ce5780638cd42991146101fe578063961c9ae41461022e576100cf565b80630eaaf4c8146100d4578063571a26a0146100f057806357c90de51461012a578063639d7566146101465780636c130dc71461016457806378bd793514610194575b600080fd5b6100ee60048036038101906100e99190612083565b6102d0565b005b61010a60048036038101906101059190612083565b6105aa565b6040516101219b9a99989796959493929190612177565b60405180910390f35b610144600480360381019061013f9190612222565b610671565b005b61014e610ae7565b60405161015b9190612262565b60405180910390f35b61017e600480360381019061017991906122a9565b610b0d565b60405161018b91906122e9565b60405180910390f35b6101ae60048036038101906101a99190612083565b610b68565b6040516101c59b9a99989796959493929190612177565b60405180910390f35b6101e860048036038101906101e391906122a9565b610d7e565b6040516101f591906122e9565b60405180910390f35b61021860048036038101906102139190612083565b610da3565b60405161022591906122e9565b60405180910390f35b61024860048036038101906102439190612304565b610f78565b005b610264600480360381019061025f9190612083565b611583565b005b61026e611804565b60405161027b91906122e9565b60405180910390f35b61029e60048036038101906102999190612083565b61180a565b6040516102ab919061239a565b60405180910390f35b6102ce60048036038101906102c99190612083565b6119f5565b005b6102d8611ff8565b60006003600083815260200190815260200160002090506000600381111561030357610302612100565b5b8160080160009054906101000a900460ff16600381111561032757610326612100565b5b036103bf578060050160009054906101000a900473ffffffffffffffffffffffffffffffffffffffff1673ffffffffffffffffffffffffffffffffffffffff163373ffffffffffffffffffffffffffffffffffffffff16036103be576040517f08c379a00000000000000000000000000000000000000000000000000000000081526004016103b590612438565b60405180910390fd5b5b60006004600084815260200190815260200160002060003373ffffffffffffffffffffffffffffffffffffffff1673ffffffffffffffffffffffffffffffffffffffff16815260200190815260200160002054905060008111610457576040517f08c379a000000000000000000000000000000000000000000000000000000000815260040161044e906124a4565b60405180910390fd5b60006004600085815260200190815260200160002060003373ffffffffffffffffffffffffffffffffffffffff1673ffffffffffffffffffffffffffffffffffffffff16815260200190815260200160002081905550600160009054906101000a900473ffffffffffffffffffffffffffffffffffffffff1673ffffffffffffffffffffffffffffffffffffffff1663a9059cbb33836040518363ffffffff1660e01b815260040161050a9291906124c4565b6020604051808303816000875af1158015610529573d6000803e3d6000fd5b505050506040513d601f19601f8201168201806040525081019061054d9190612519565b503373ffffffffffffffffffffffffffffffffffffffff16837f8f8619524e8d462cead34604bd2247ede24175801481e4d0b8059ac8aa41c3018360405161059591906122e9565b60405180910390a350506105a761203e565b50565b60036020528060005260406000206000915090508060000160009054906101000a900473ffffffffffffffffffffffffffffffffffffffff16908060010154908060020160009054906101000a900473ffffffffffffffffffffffffffffffffffffffff16908060030154908060040154908060050160009054906101000a900473ffffffffffffffffffffffffffffffffffffffff16908060060154908060070154908060080160009054906101000a900460ff169080600901549080600a015490508b565b610679611ff8565b6000600360008481526020019081526020016000209050600060038111156106a4576106a3612100565b5b8160080160009054906101000a900460ff1660038111156106c8576106c7612100565b5b14610708576040517f08c379a00000000000000000000000000000000000000000000000000000000081526004016106ff90612592565b60405180910390fd5b8060070154421061074e576040517f08c379a0000000000000000000000000000000000000000000000000000000008152600401610745906125fe565b60405180910390fd5b8060020160009054906101000a900473ffffffffffffffffffffffffffffffffffffffff1673ffffffffffffffffffffffffffffffffffffffff163373ffffffffffffffffffffffffffffffffffffffff16036107e0576040517f08c379a00000000000000000000000000000000000000000000000000000000081526004016107d79061266a565b60405180910390fd5b6000826004600086815260200190815260200160002060003373ffffffffffffffffffffffffffffffffffffffff1673ffffffffffffffffffffffffffffffffffffffff1681526020019081526020016000205461083e91906126b9565b90506000826004015403610898578160030154811015610893576040517f08c379a000000000000000000000000000000000000000000000000000000000815260040161088a90612739565b60405180910390fd5b6108ef565b81600a015482600401546108ac91906126b9565b8110156108ee576040517f08c379a00000000000000000000000000000000000000000000000000000000081526004016108e5906127cb565b60405180910390fd5b5b600160009054906101000a900473ffffffffffffffffffffffffffffffffffffffff1673ffffffffffffffffffffffffffffffffffffffff166323b872dd3330866040518463ffffffff1660e01b815260040161094e939291906127eb565b6020604051808303816000875af115801561096d573d6000803e3d6000fd5b505050506040513d601f19601f820116820180604052508101906109919190612519565b50806004600086815260200190815260200160002060003373ffffffffffffffffffffffffffffffffffffffff1673ffffffffffffffffffffffffffffffffffffffff16815260200190815260200160002081905550808260040181905550338260050160006101000a81548173ffffffffffffffffffffffffffffffffffffffff021916908373ffffffffffffffffffffffffffffffffffffffff160217905550816009016000815480929190610a4890612822565b919050555061012c428360070154610a60919061286a565b1015610a845761012c826007016000828254610a7c91906126b9565b925050819055505b3373ffffffffffffffffffffffffffffffffffffffff16847f51db8e23b3f4479b162fd48823b8402895442b8f6cfd94f66239391881ec7b6f838560070154604051610ad192919061289e565b60405180910390a35050610ae361203e565b5050565b600160009054906101000a900473ffffffffffffffffffffffffffffffffffffffff1681565b60006004600084815260200190815260200160002060008373ffffffffffffffffffffffffffffffffffffffff1673ffffffffffffffffffffffffffffffffffffffff16815260200190815260200160002054905092915050565b600080600080600080600080600080600080600360008e8152602001908152602001600020604051806101600160405290816000820160009054906101000a900473ffffffffffffffffffffffffffffffffffffffff1673ffffffffffffffffffffffffffffffffffffffff1673ffffffffffffffffffffffffffffffffffffffff168152602001600182015481526020016002820160009054906101000a900473ffffffffffffffffffffffffffffffffffffffff1673ffffffffffffffffffffffffffffffffffffffff1673ffffffffffffffffffffffffffffffffffffffff16815260200160038201548152602001600482015481526020016005820160009054906101000a900473ffffffffffffffffffffffffffffffffffffffff1673ffffffffffffffffffffffffffffffffffffffff1673ffffffffffffffffffffffffffffffffffffffff16815260200160068201548152602001600782015481526020016008820160009054906101000a900460ff166003811115610cf257610cf1612100565b5b6003811115610d0457610d03612100565b5b815260200160098201548152602001600a820154815250509050806000015181602001518260400151836060015184608001518560a001518660c001518760e001518861010001518961012001518a61014001519b509b509b509b509b509b509b509b509b509b509b505091939597999b90929496989a50565b6004602052816000526040600020602052806000526040600020600091509150505481565b60008060036000848152602001908152602001600020604051806101600160405290816000820160009054906101000a900473ffffffffffffffffffffffffffffffffffffffff1673ffffffffffffffffffffffffffffffffffffffff1673ffffffffffffffffffffffffffffffffffffffff168152602001600182015481526020016002820160009054906101000a900473ffffffffffffffffffffffffffffffffffffffff1673ffffffffffffffffffffffffffffffffffffffff1673ffffffffffffffffffffffffffffffffffffffff16815260200160038201548152602001600482015481526020016005820160009054906101000a900473ffffffffffffffffffffffffffffffffffffffff1673ffffffffffffffffffffffffffffffffffffffff1673ffffffffffffffffffffffffffffffffffffffff16815260200160068201548152602001600782015481526020016008820160009054906101000a900460ff166003811115610f1e57610f1d612100565b5b6003811115610f3057610f2f612100565b5b815260200160098201548152602001600a8201548152505090508060e001514210610f5f576000915050610f73565b428160e00151610f6f919061286a565b9150505b919050565b60008311610fbb576040517f08c379a0000000000000000000000000000000000000000000000000000000008152600401610fb290612913565b60405180910390fd5b610e108210158015610fd0575062278d008211155b61100f576040517f08c379a00000000000000000000000000000000000000000000000000000000081526004016110069061297f565b60405180910390fd5b3373ffffffffffffffffffffffffffffffffffffffff168573ffffffffffffffffffffffffffffffffffffffff16636352211e866040518263ffffffff1660e01b815260040161105f91906122e9565b602060405180830381865afa15801561107c573d6000803e3d6000fd5b505050506040513d601f19601f820116820180604052508101906110a091906129b4565b73ffffffffffffffffffffffffffffffffffffffff16146110f6576040517f08c379a00000000000000000000000000000000000000000000000000000000081526004016110ed90612a2d565b60405180910390fd5b3073ffffffffffffffffffffffffffffffffffffffff168573ffffffffffffffffffffffffffffffffffffffff1663081812fc866040518263ffffffff1660e01b815260040161114691906122e9565b602060405180830381865afa158015611163573d6000803e3d6000fd5b505050506040513d601f19601f8201168201806040525081019061118791906129b4565b73ffffffffffffffffffffffffffffffffffffffff16148061122157508473ffffffffffffffffffffffffffffffffffffffff1663e985e9c533306040518363ffffffff1660e01b81526004016111df929190612a4d565b602060405180830381865afa1580156111fc573d6000803e3d6000fd5b505050506040513d601f19601f820116820180604052508101906112209190612519565b5b611260576040517f08c379a000000000000000000000000000000000000000000000000000000000815260040161125790612ac2565b60405180910390fd5b8473ffffffffffffffffffffffffffffffffffffffff166323b872dd3330876040518463ffffffff1660e01b815260040161129d939291906127eb565b600060405180830381600087803b1580156112b757600080fd5b505af11580156112cb573d6000803e3d6000fd5b5050505060006002549050600260008154809291906112e990612822565b91905055506040518061016001604052808773ffffffffffffffffffffffffffffffffffffffff1681526020018681526020013373ffffffffffffffffffffffffffffffffffffffff16815260200185815260200160008152602001600073ffffffffffffffffffffffffffffffffffffffff168152602001428152602001844261137491906126b9565b81526020016000600381111561138d5761138c612100565b5b815260200160008152602001600084116113b3576014866113ae9190612b11565b6113b5565b835b8152506003600083815260200190815260200160002060008201518160000160006101000a81548173ffffffffffffffffffffffffffffffffffffffff021916908373ffffffffffffffffffffffffffffffffffffffff1602179055506020820151816001015560408201518160020160006101000a81548173ffffffffffffffffffffffffffffffffffffffff021916908373ffffffffffffffffffffffffffffffffffffffff160217905550606082015181600301556080820151816004015560a08201518160050160006101000a81548173ffffffffffffffffffffffffffffffffffffffff021916908373ffffffffffffffffffffffffffffffffffffffff16021790555060c0820151816006015560e082015181600701556101008201518160080160006101000a81548160ff021916908360038111156114fe576114fd612100565b5b0217905550610120820151816009015561014082015181600a0155905050848673ffffffffffffffffffffffffffffffffffffffff16827f0330edd30cf346409c694666d69b24f917bbad510da55f45089d776baff1f42b3388884261156491906126b9565b60405161157393929190612b42565b60405180910390a4505050505050565b6000600360008381526020019081526020016000209050600060038111156115ae576115ad612100565b5b8160080160009054906101000a900460ff1660038111156115d2576115d1612100565b5b14611612576040517f08c379a000000000000000000000000000000000000000000000000000000000815260040161160990612bc5565b60405180910390fd5b8060020160009054906101000a900473ffffffffffffffffffffffffffffffffffffffff1673ffffffffffffffffffffffffffffffffffffffff163373ffffffffffffffffffffffffffffffffffffffff16146116a4576040517f08c379a000000000000000000000000000000000000000000000000000000000815260040161169b90612c31565b60405180910390fd5b60008160090154146116eb576040517f08c379a00000000000000000000000000000000000000000000000000000000081526004016116e290612c9d565b60405180910390fd5b60038160080160006101000a81548160ff0219169083600381111561171357611712612100565b5b02179055508060000160009054906101000a900473ffffffffffffffffffffffffffffffffffffffff1673ffffffffffffffffffffffffffffffffffffffff166323b872dd308360020160009054906101000a900473ffffffffffffffffffffffffffffffffffffffff1684600101546040518463ffffffff1660e01b81526004016117a1939291906127eb565b600060405180830381600087803b1580156117bb57600080fd5b505af11580156117cf573d6000803e3d6000fd5b50505050817f2809c7e17bf978fbc7194c0a694b638c4215e9140cacc6c38ca36010b45697df60405160405180910390a25050565b60025481565b60008060036000848152602001908152602001600020604051806101600160405290816000820160009054906101000a900473ffffffffffffffffffffffffffffffffffffffff1673ffffffffffffffffffffffffffffffffffffffff1673ffffffffffffffffffffffffffffffffffffffff168152602001600182015481526020016002820160009054906101000a900473ffffffffffffffffffffffffffffffffffffffff1673ffffffffffffffffffffffffffffffffffffffff1673ffffffffffffffffffffffffffffffffffffffff16815260200160038201548152602001600482015481526020016005820160009054906101000a900473ffffffffffffffffffffffffffffffffffffffff1673ffffffffffffffffffffffffffffffffffffffff1673ffffffffffffffffffffffffffffffffffffffff16815260200160068201548152602001600782015481526020016008820160009054906101000a900460ff16600381111561198557611984612100565b5b600381111561199757611996612100565b5b815260200160098201548152602001600a820154815250509050600060038111156119c5576119c4612100565b5b81610100015160038111156119dd576119dc612100565b5b1480156119ed57508060e0015142105b915050919050565b6119fd611ff8565b600060036000838152602001908152602001600020905060006003811115611a2857611a27612100565b5b8160080160009054906101000a900460ff166003811115611a4c57611a4b612100565b5b14611a8c576040517f08c379a0000000000000000000000000000000000000000000000000000000008152600401611a8390612bc5565b60405180910390fd5b8060070154421015611ad3576040517f08c379a0000000000000000000000000000000000000000000000000000000008152600401611aca90612d09565b60405180910390fd5b8060020160009054906101000a900473ffffffffffffffffffffffffffffffffffffffff1673ffffffffffffffffffffffffffffffffffffffff163373ffffffffffffffffffffffffffffffffffffffff1614611b65576040517f08c379a0000000000000000000000000000000000000000000000000000000008152600401611b5c90612d75565b60405180910390fd5b60028160080160006101000a81548160ff02191690836003811115611b8d57611b8c612100565b5b0217905550600073ffffffffffffffffffffffffffffffffffffffff168160050160009054906101000a900473ffffffffffffffffffffffffffffffffffffffff1673ffffffffffffffffffffffffffffffffffffffff1614611ed65760006004600084815260200190815260200160002060008360050160009054906101000a900473ffffffffffffffffffffffffffffffffffffffff1673ffffffffffffffffffffffffffffffffffffffff1673ffffffffffffffffffffffffffffffffffffffff16815260200190815260200160002054905060006004600085815260200190815260200160002060008460050160009054906101000a900473ffffffffffffffffffffffffffffffffffffffff1673ffffffffffffffffffffffffffffffffffffffff1673ffffffffffffffffffffffffffffffffffffffff16815260200190815260200160002081905550600160009054906101000a900473ffffffffffffffffffffffffffffffffffffffff1673ffffffffffffffffffffffffffffffffffffffff1663a9059cbb8360020160009054906101000a900473ffffffffffffffffffffffffffffffffffffffff16836040518363ffffffff1660e01b8152600401611d5e9291906124c4565b6020604051808303816000875af1158015611d7d573d6000803e3d6000fd5b505050506040513d601f19601f82011682018060405250810190611da19190612519565b508160000160009054906101000a900473ffffffffffffffffffffffffffffffffffffffff1673ffffffffffffffffffffffffffffffffffffffff166323b872dd308460050160009054906101000a900473ffffffffffffffffffffffffffffffffffffffff1685600101546040518463ffffffff1660e01b8152600401611e2b939291906127eb565b600060405180830381600087803b158015611e4557600080fd5b505af1158015611e59573d6000803e3d6000fd5b505050508160050160009054906101000a900473ffffffffffffffffffffffffffffffffffffffff1673ffffffffffffffffffffffffffffffffffffffff16837f4d9113a1377d665eaa1f9168a9c9080f2e488cb820b10149de3d6d2e0f2780c783604051611ec891906122e9565b60405180910390a350611fec565b8060000160009054906101000a900473ffffffffffffffffffffffffffffffffffffffff1673ffffffffffffffffffffffffffffffffffffffff166323b872dd308360020160009054906101000a900473ffffffffffffffffffffffffffffffffffffffff1684600101546040518463ffffffff1660e01b8152600401611f5f939291906127eb565b600060405180830381600087803b158015611f7957600080fd5b505af1158015611f8d573d6000803e3d6000fd5b5050505060038160080160006101000a81548160ff02191690836003811115611fb957611fb8612100565b5b0217905550817f2809c7e17bf978fbc7194c0a694b638c4215e9140cacc6c38ca36010b45697df60405160405180910390a25b50611ff561203e565b50565b600260005403612034576040517f3ee5aeb500000000000000000000000000000000000000000000000000000000815260040160405180910390fd5b6002600081905550565b6001600081905550565b600080fd5b6000819050919050565b6120608161204d565b811461206b57600080fd5b50565b60008135905061207d81612057565b92915050565b60006020828403121561209957612098612048565b5b60006120a78482850161206e565b91505092915050565b600073ffffffffffffffffffffffffffffffffffffffff82169050919050565b60006120db826120b0565b9050919050565b6120eb816120d0565b82525050565b6120fa8161204d565b82525050565b7f4e487b7100000000000000000000000000000000000000000000000000000000600052602160045260246000fd5b600481106121405761213f612100565b5b50565b60008190506121518261212f565b919050565b600061216182612143565b9050919050565b61217181612156565b82525050565b60006101608201905061218d600083018e6120e2565b61219a602083018d6120f1565b6121a7604083018c6120e2565b6121b4606083018b6120f1565b6121c1608083018a6120f1565b6121ce60a08301896120e2565b6121db60c08301886120f1565b6121e860e08301876120f1565b6121f6610100830186612168565b6122046101208301856120f1565b6122126101408301846120f1565b9c9b505050505050505050505050565b6000806040838503121561223957612238612048565b5b60006122478582860161206e565b92505060206122588582860161206e565b9150509250929050565b600060208201905061227760008301846120e2565b92915050565b612286816120d0565b811461229157600080fd5b50565b6000813590506122a38161227d565b92915050565b600080604083850312156122c0576122bf612048565b5b60006122ce8582860161206e565b92505060206122df85828601612294565b9150509250929050565b60006020820190506122fe60008301846120f1565b92915050565b600080600080600060a086880312156123205761231f612048565b5b600061232e88828901612294565b955050602061233f8882890161206e565b94505060406123508882890161206e565b93505060606123618882890161206e565b92505060806123728882890161206e565b9150509295509295909350565b60008115159050919050565b6123948161237f565b82525050565b60006020820190506123af600083018461238b565b92915050565b600082825260208201905092915050565b7f48696768657374206269646465722063616e6e6f74207769746864726177206460008201527f7572696e67206163746976652061756374696f6e000000000000000000000000602082015250565b60006124226034836123b5565b915061242d826123c6565b604082019050919050565b6000602082019050818103600083015261245181612415565b9050919050565b7f4e6f2066756e647320746f207769746864726177000000000000000000000000600082015250565b600061248e6014836123b5565b915061249982612458565b602082019050919050565b600060208201905081810360008301526124bd81612481565b9050919050565b60006040820190506124d960008301856120e2565b6124e660208301846120f1565b9392505050565b6124f68161237f565b811461250157600080fd5b50565b600081519050612513816124ed565b92915050565b60006020828403121561252f5761252e612048565b5b600061253d84828501612504565b91505092915050565b7f41756374696f6e206e6f74206163746976650000000000000000000000000000600082015250565b600061257c6012836123b5565b915061258782612546565b602082019050919050565b600060208201905081810360008301526125ab8161256f565b9050919050565b7f41756374696f6e2068617320656e646564000000000000000000000000000000600082015250565b60006125e86011836123b5565b91506125f3826125b2565b602082019050919050565b60006020820190508181036000830152612617816125db565b9050919050565b7f53656c6c65722063616e6e6f7420626964000000000000000000000000000000600082015250565b60006126546011836123b5565b915061265f8261261e565b602082019050919050565b6000602082019050818103600083015261268381612647565b9050919050565b7f4e487b7100000000000000000000000000000000000000000000000000000000600052601160045260246000fd5b60006126c48261204d565b91506126cf8361204d565b92508282019050808211156126e7576126e661268a565b5b92915050565b7f4269642062656c6f772072657365727665207072696365000000000000000000600082015250565b60006127236017836123b5565b915061272e826126ed565b602082019050919050565b6000602082019050818103600083015261275281612716565b9050919050565b7f42696420746f6f206c6f7720286d75737420657863656564206869676865737460008201527f202b20696e6372656d656e742900000000000000000000000000000000000000602082015250565b60006127b5602d836123b5565b91506127c082612759565b604082019050919050565b600060208201905081810360008301526127e4816127a8565b9050919050565b600060608201905061280060008301866120e2565b61280d60208301856120e2565b61281a60408301846120f1565b949350505050565b600061282d8261204d565b91507fffffffffffffffffffffffffffffffffffffffffffffffffffffffffffffffff820361285f5761285e61268a565b5b600182019050919050565b60006128758261204d565b91506128808361204d565b92508282039050818111156128985761289761268a565b5b92915050565b60006040820190506128b360008301856120f1565b6128c060208301846120f1565b9392505050565b7f52657365727665207072696365206d757374206265203e203000000000000000600082015250565b60006128fd6019836123b5565b9150612908826128c7565b602082019050919050565b6000602082019050818103600083015261292c816128f0565b9050919050565b7f4475726174696f6e3a20316820746f2033306400000000000000000000000000600082015250565b60006129696013836123b5565b915061297482612933565b602082019050919050565b600060208201905081810360008301526129988161295c565b9050919050565b6000815190506129ae8161227d565b92915050565b6000602082840312156129ca576129c9612048565b5b60006129d88482850161299f565b91505092915050565b7f596f7520646f206e6f74206f776e207468697320746f6b656e00000000000000600082015250565b6000612a176019836123b5565b9150612a22826129e1565b602082019050919050565b60006020820190508181036000830152612a4681612a0a565b9050919050565b6000604082019050612a6260008301856120e2565b612a6f60208301846120e2565b9392505050565b7f41756374696f6e20636f6e7472616374206e6f7420617070726f766564000000600082015250565b6000612aac601d836123b5565b9150612ab782612a76565b602082019050919050565b60006020820190508181036000830152612adb81612a9f565b9050919050565b7f4e487b7100000000000000000000000000000000000000000000000000000000600052601260045260246000fd5b6000612b1c8261204d565b9150612b278361204d565b925082612b3757612b36612ae2565b5b828204905092915050565b6000606082019050612b5760008301866120e2565b612b6460208301856120f1565b612b7160408301846120f1565b949350505050565b7f4e6f742061637469766500000000000000000000000000000000000000000000600082015250565b6000612baf600a836123b5565b9150612bba82612b79565b602082019050919050565b60006020820190508181036000830152612bde81612ba2565b9050919050565b7f4f6e6c792073656c6c6572000000000000000000000000000000000000000000600082015250565b6000612c1b600b836123b5565b9150612c2682612be5565b602082019050919050565b60006020820190508181036000830152612c4a81612c0e565b9050919050565b7f43616e6e6f742063616e63656c20776974682062696473000000000000000000600082015250565b6000612c876017836123b5565b9150612c9282612c51565b602082019050919050565b60006020820190508181036000830152612cb681612c7a565b9050919050565b7f41756374696f6e207374696c6c2072756e6e696e670000000000000000000000600082015250565b6000612cf36015836123b5565b9150612cfe82612cbd565b602082019050919050565b60006020820190508181036000830152612d2281612ce6565b9050919050565b7f4f6e6c792073656c6c65722063616e2066696e616c697a650000000000000000600082015250565b6000612d5f6018836123b5565b9150612d6a82612d29565b602082019050919050565b60006020820190508181036000830152612d8e81612d52565b905091905056fea26469706673582212203fcc59ab1ae11f8fafd4762172cc257a383fcfa8af348e811267a23508e7b43264736f6c63430008140033",
  "linkReferences": {},
  "deployedLinkReferences": {}
}