{
  "_format": "hh-sol-artifact-1",
  "contractName": "PropertyMarketplace",
  "sourceName": "contracts/PropertyMarketplace.sol",
  "abi": [
    {
      "inputs": [],
      "name": "ReentrancyGuardReentrantCall",
      "type": "error"
    },
    {
      "anonymous": false,
      "inputs": [
        {
          "indexed": true,
          "internalType": "address",
          "name": "nftContract",
          "type": "address"
        },
        {
          "indexed": true,
          "internalType": "uint256",
          "name": "tokenId",
          "type": "uint256"
        },
        {
          "indexed": true,
          "internalType": "address",
          "name": "seller",
          "type": "address"
        }
      ],
      "name": "ListingCancelled",
      "type": "event"
    },
    {
      "anonymous": false,
      "inputs": [
        {
          "indexed": true,
          "internalType": "address",
          "name": "nftContract",
          "type": "address"
        },
        {
          "indexed": true,
          "internalType": "uint256",
          "name": "tokenId",
          "type": "uint256"
        },
        {
          "indexed": true,
          "internalType": "address",
          "name": "seller",
          "type": "address"
        },
        {
          "indexed": false,
          "internalType": "uint256",
          "name": "price",
          "type": "uint256"
        }
      ],
      "name": "PropertyListed",
      "type": "event"
    },
    {
      "anonymous": false,
      "inputs": [
        {
          "indexed": true,
          "internalType": "address",
          "name": "nftContract",
          "type": "address"
        },
        {
          "indexed": true,
          "internalType": "uint256",
          "name": "tokenId",
          "type": "uint256"
        },
        {
          "indexed": true,
          "internalType": "address",
          "name": "buyer",
          "type": "address"
        },
        {
          "indexed": false,
          "internalType": "address",
          "name": "seller",
          "type": "address"
        },
        {
          "indexed": false,
          "internalType": "uint256",
          "name": "price",
          "type": "uint256"
        }
      ],
      "name": "PropertySold",
      "type": "event"
    },
    {
      "inputs": [
        {
          "internalType": "address",
          "name": "nftContract",
          "type": "address"
        },
        {
          "internalType": "uint256",
          "name": "tokenId",
          "type": "uint256"
        }
      ],
      "name": "buyProperty",
      "outputs": [],
      "stateMutability": "payable",
      "type": "function"
    },
    {
      "inputs": [
        {
          "internalType": "address",
          "name": "nftContract",
          "type": "address"
        },
        {
          "internalType": "uint256",
          "name": "tokenId",
          "type": "uint256"
        }
      ],
      "name": "cancelListing",
      "outputs": [],
      "stateMutability": "nonpayable",
      "type": "function"
    },
    {
      "inputs": [
        {
          "internalType": "address",
          "name": "nftContract",
          "type": "address"
        },
        {
          "internalType": "uint256",
          "name": "tokenId",
          "type": "uint256"
        }
      ],
      "name": "getListing",
      "outputs": [
        {
          "internalType": "address",
          "name": "seller",
          "type": "address"
        },
        {
          "internalType": "uint256",
          "name": "price",
          "type": "uint256"
        },
        {
          "internalType": "bool",
          "name": "active",
          "type": "bool"
        }
      ],
      "stateMutability": "view",
      "type": "function"
    },
    {
      "inputs": [
        {
          "internalType": "address",
          "name": "nftContract",
          "type": "address"
        },
        {
          "internalType": "uint256",
          "name": "tokenId",
          "type": "uint256"
        },
        {
          "internalType": "uint256",
          "name": "price",
          "type": "uint256"
        }
      ],
      "name": "listProperty",
      "outputs": [],
      "stateMutability": "nonpayable",
      "type": "function"
    },
    {
      "inputs": [
        {
          "internalType": "address",
          "name": "",
          "type": "address"
        },
        {
          "internalType": "uint256",
          "name": "",
          "type": "uint256"
        }
      ],
      "name": "listings",
      "outputs": [
        {
          "internalType": "address",
          "name": "seller",
          "type": "address"
        },
        {
          "internalType": "uint256",
          "name": "price",
          "type": "uint256"
        },
        {
          "internalType": "bool",
          "name": "active",
          "type": "bool"
        }
      ],
      "stateMutability": "view",
      "type": "function"
    }
  ],
  "bytecode": "0x608060405234801561001057600080fd5b5060016000819055506113ba806100286000396000f3fe6080604052600436106100495760003560e01c806207df301461004e57806388700d1c1461008d578063b2ddee06146100cc578063d56c46cc146100f5578063e65640621461011e575b600080fd5b34801561005a57600080fd5b5061007560048036038101906100709190610dab565b61013a565b60405161008493929190610e24565b60405180910390f35b34801561009957600080fd5b506100b460048036038101906100af9190610dab565b61019e565b6040516100c393929190610e24565b60405180910390f35b3480156100d857600080fd5b506100f360048036038101906100ee9190610dab565b610299565b005b34801561010157600080fd5b5061011c60048036038101906101179190610e5b565b61051f565b005b61013860048036038101906101339190610dab565b610916565b005b6001602052816000526040600020602052806000526040600020600091509150508060000160009054906101000a900473ffffffffffffffffffffffffffffffffffffffff16908060010154908060020160009054906101000a900460ff16905083565b600080600080600160008773ffffffffffffffffffffffffffffffffffffffff1673ffffffffffffffffffffffffffffffffffffffff16815260200190815260200160002060008681526020019081526020016000206040518060600160405290816000820160009054906101000a900473ffffffffffffffffffffffffffffffffffffffff1673ffffffffffffffffffffffffffffffffffffffff1673ffffffffffffffffffffffffffffffffffffffff168152602001600182015481526020016002820160009054906101000a900460ff1615151515815250509050806000015181602001518260400151935093509350509250925092565b6000600160008473ffffffffffffffffffffffffffffffffffffffff1673ffffffffffffffffffffffffffffffffffffffff16815260200190815260200160002060008381526020019081526020016000206040518060600160405290816000820160009054906101000a900473ffffffffffffffffffffffffffffffffffffffff1673ffffffffffffffffffffffffffffffffffffffff1673ffffffffffffffffffffffffffffffffffffffff168152602001600182015481526020016002820160009054906101000a900460ff161515151581525050905080604001516103b7576040517f08c379a00000000000000000000000000000000000000000000000000000000081526004016103ae90610f0b565b60405180910390fd5b3373ffffffffffffffffffffffffffffffffffffffff16816000015173ffffffffffffffffffffffffffffffffffffffff1614610429576040517f08c379a000000000000000000000000000000000000000000000000000000000815260040161042090610f77565b60405180910390fd5b600160008473ffffffffffffffffffffffffffffffffffffffff1673ffffffffffffffffffffffffffffffffffffffff1681526020019081526020016000206000838152602001908152602001600020600080820160006101000a81549073ffffffffffffffffffffffffffffffffffffffff021916905560018201600090556002820160006101000a81549060ff021916905550503373ffffffffffffffffffffffffffffffffffffffff16828473ffffffffffffffffffffffffffffffffffffffff167f8526cb6d400b8a551983c99e6d6fb1775b7a0deeb5d1e39d3ee65bc59e5eac2760405160405180910390a4505050565b60008111610562576040517f08c379a000000000000000000000000000000000000000000000000000000000815260040161055990610fe3565b60405180910390fd5b3373ffffffffffffffffffffffffffffffffffffffff168373ffffffffffffffffffffffffffffffffffffffff16636352211e846040518263ffffffff1660e01b81526004016105b29190611003565b602060405180830381865afa1580156105cf573d6000803e3d6000fd5b505050506040513d601f19601f820116820180604052508101906105f39190611033565b73ffffffffffffffffffffffffffffffffffffffff1614610649576040517f08c379a0000000000000000000000000000000000000000000000000000000008152600401610640906110ac565b60405180910390fd5b3073ffffffffffffffffffffffffffffffffffffffff168373ffffffffffffffffffffffffffffffffffffffff1663081812fc846040518263ffffffff1660e01b81526004016106999190611003565b602060405180830381865afa1580156106b6573d6000803e3d6000fd5b505050506040513d601f19601f820116820180604052508101906106da9190611033565b73ffffffffffffffffffffffffffffffffffffffff16148061077457508273ffffffffffffffffffffffffffffffffffffffff1663e985e9c533306040518363ffffffff1660e01b81526004016107329291906110cc565b602060405180830381865afa15801561074f573d6000803e3d6000fd5b505050506040513d601f19601f820116820180604052508101906107739190611121565b5b6107b3576040517f08c379a00000000000000000000000000000000000000000000000000000000081526004016107aa906111c0565b60405180910390fd5b60405180606001604052803373ffffffffffffffffffffffffffffffffffffffff16815260200182815260200160011515815250600160008573ffffffffffffffffffffffffffffffffffffffff1673ffffffffffffffffffffffffffffffffffffffff168152602001908152602001600020600084815260200190815260200160002060008201518160000160006101000a81548173ffffffffffffffffffffffffffffffffffffffff021916908373ffffffffffffffffffffffffffffffffffffffff1602179055506020820151816001015560408201518160020160006101000a81548160ff0219169083151502179055509050503373ffffffffffffffffffffffffffffffffffffffff16828473ffffffffffffffffffffffffffffffffffffffff167f2699d36b6431ff7b5a23983462f25dcaa86469bcbf82b177cdd4a5bf2dfe8591846040516109099190611003565b60405180910390a4505050565b61091e610cc2565b6000600160008473ffffffffffffffffffffffffffffffffffffffff1673ffffffffffffffffffffffffffffffffffffffff16815260200190815260200160002060008381526020019081526020016000206040518060600160405290816000820160009054906101000a900473ffffffffffffffffffffffffffffffffffffffff1673ffffffffffffffffffffffffffffffffffffffff1673ffffffffffffffffffffffffffffffffffffffff168152602001600182015481526020016002820160009054906101000a900460ff16151515158152505090508060400151610a3c576040517f08c379a0000000000000000000000000000000000000000000000000000000008152600401610a339061122c565b60405180910390fd5b8060200151341015610a83576040517f08c379a0000000000000000000000000000000000000000000000000000000008152600401610a7a90611298565b60405180910390fd5b806000015173ffffffffffffffffffffffffffffffffffffffff163373ffffffffffffffffffffffffffffffffffffffff1603610af5576040517f08c379a0000000000000000000000000000000000000000000000000000000008152600401610aec90611304565b60405180910390fd5b600160008473ffffffffffffffffffffffffffffffffffffffff1673ffffffffffffffffffffffffffffffffffffffff1681526020019081526020016000206000838152602001908152602001600020600080820160006101000a81549073ffffffffffffffffffffffffffffffffffffffff021916905560018201600090556002820160006101000a81549060ff02191690555050806000015173ffffffffffffffffffffffffffffffffffffffff166108fc349081150290604051600060405180830381858888f19350505050158015610bd5573d6000803e3d6000fd5b508273ffffffffffffffffffffffffffffffffffffffff166323b872dd826000015133856040518463ffffffff1660e01b8152600401610c1793929190611324565b600060405180830381600087803b158015610c3157600080fd5b505af1158015610c45573d6000803e3d6000fd5b505050503373ffffffffffffffffffffffffffffffffffffffff16828473ffffffffffffffffffffffffffffffffffffffff167fee06de66fb0b89a20852227826a2e0960dacfdf51e9105f83f52351259f05ba5846000015134604051610cad92919061135b565b60405180910390a450610cbe610d08565b5050565b600260005403610cfe576040517f3ee5aeb500000000000000000000000000000000000000000000000000000000815260040160405180910390fd5b6002600081905550565b6001600081905550565b600080fd5b600073ffffffffffffffffffffffffffffffffffffffff82169050919050565b6000610d4282610d17565b9050919050565b610d5281610d37565b8114610d5d57600080fd5b50565b600081359050610d6f81610d49565b92915050565b6000819050919050565b610d8881610d75565b8114610d9357600080fd5b50565b600081359050610da581610d7f565b92915050565b60008060408385031215610dc257610dc1610d12565b5b6000610dd085828601610d60565b9250506020610de185828601610d96565b9150509250929050565b610df481610d37565b82525050565b610e0381610d75565b82525050565b60008115159050919050565b610e1e81610e09565b82525050565b6000606082019050610e396000830186610deb565b610e466020830185610dfa565b610e536040830184610e15565b949350505050565b600080600060608486031215610e7457610e73610d12565b5b6000610e8286828701610d60565b9350506020610e9386828701610d96565b9250506040610ea486828701610d96565b9150509250925092565b600082825260208201905092915050565b7f4e6f20616374697665206c697374696e67000000000000000000000000000000600082015250565b6000610ef5601183610eae565b9150610f0082610ebf565b602082019050919050565b60006020820190508181036000830152610f2481610ee8565b9050919050565b7f4f6e6c792073656c6c65722063616e2063616e63656c00000000000000000000600082015250565b6000610f61601683610eae565b9150610f6c82610f2b565b602082019050919050565b60006020820190508181036000830152610f9081610f54565b9050919050565b7f5072696365206d7573742062652067726561746572207468616e207a65726f00600082015250565b6000610fcd601f83610eae565b9150610fd882610f97565b602082019050919050565b60006020820190508181036000830152610ffc81610fc0565b9050919050565b60006020820190506110186000830184610dfa565b92915050565b60008151905061102d81610d49565b92915050565b60006020828403121561104957611048610d12565b5b60006110578482850161101e565b91505092915050565b7f596f7520646f206e6f74206f776e207468697320746f6b656e00000000000000600082015250565b6000611096601983610eae565b91506110a182611060565b602082019050919050565b600060208201905081810360008301526110c581611089565b9050919050565b60006040820190506110e16000830185610deb565b6110ee6020830184610deb565b9392505050565b6110fe81610e09565b811461110957600080fd5b50565b60008151905061111b816110f5565b92915050565b60006020828403121561113757611136610d12565b5b60006111458482850161110c565b91505092915050565b7f4d61726b6574706c616365206e6f7420617070726f76656420746f207472616e60008201527f73666572207468697320746f6b656e0000000000000000000000000000000000602082015250565b60006111aa602f83610eae565b91506111b58261114e565b604082019050919050565b600060208201905081810360008301526111d98161119d565b9050919050565b7f50726f7065727479206973206e6f74206c697374656420666f722073616c6500600082015250565b6000611216601f83610eae565b9150611221826111e0565b602082019050919050565b6000602082019050818103600083015261124581611209565b9050919050565b7f496e73756666696369656e74207061796d656e74000000000000000000000000600082015250565b6000611282601483610eae565b915061128d8261124c565b602082019050919050565b600060208201905081810360008301526112b181611275565b9050919050565b7f53656c6c65722063616e6e6f7420627579206f776e206c697374696e67000000600082015250565b60006112ee601d83610eae565b91506112f9826112b8565b602082019050919050565b6000602082019050818103600083015261131d816112e1565b9050919050565b60006060820190506113396000830186610deb565b6113466020830185610deb565b6113536040830184610dfa565b949350505050565b60006040820190506113706000830185610deb565b61137d6020830184610dfa565b939250505056fea26469706673582212206b40b232fb98325a1d836d6a49daa9ff0ed014337773d9f9484c2260af0d6bfa64736f6c63430008140033",
  "linkReferences": {},
  "deployedLinkReferences": {}
}